:020000040800F2
:10000000583A002099010008574B0008273B000888
:10001000554B0008670C0008C55F00080000000091
:1000200000000000000000000000000001010008C6
:100030000D1200080000000045010008D558000816
:10004000B3010008B3010008B3010008B3010008C0
:10005000B3010008B3010008B3010008B3010008B0
:10006000B3010008B3010008B3010008B3010008A0
:10007000B3010008B3010008DD110008E911000810
:10008000F511000801120008B3010008AD5F000877
:10009000B95F0008B3010008B3010008B30100080C
:1000A000B301000871590008B3010008B30100084A
:1000B000B3010008B30100087D5900083D3B00086A
:1000C000313B0008B3010008B3010008B301000888
:1000D000B3010008955F0008A15F0008B3010008A4
:1000E000B3010008B3010008B3010008DFF80CD029
:1000F00000F06EFD00480047C96A0008583A002029
:10010000224B19680868B0E8F00F80F30988BFF344
:100110006F8F4FF0000080F311884EF00D0E704786
:100120000000000006480068006880F3088862B696
:1001300061B6BFF34F8FBFF36F8F00DF00BF00BF0B
:1001400008ED00E0EFF30980BFF36F8F0F4B1A68E3
:1001500020E9F00F106008B54FF0500080F31188CF
:10016000BFF34F8FBFF36F8F07F0B0FF4FF000006A
:1001700080F31188BDE8084019680868B0E8F00FFE
:1001800080F30988BFF36F8F704700BF180000200D
:10019000EFF3058070470000064880470648004797
:1001A000FEE7FEE7FEE7FEE7FEE7FEE7FEE7FEE727
:1001B000FEE7FEE767590008ED000008202A04DB8F
:1001C000203A21FA02F00021704721FA02F3D040D0
:1001D000C2F12002914008431946704740EA0103EA
:1001E0009B0703D009E008C9121F08C0042AFAD2ED
:1001F00003E011F8013B00F8013B521EF9D27047B1
:10020000D2B201E000F8012B491EFBD27047002258
:10021000F6E710B513460A4604461946FFF7F0FF05
:10022000204610BD30B505462A460B4612F8010B94
:1002300013F8014B08B1A042F8D01CB1002802D03D
:100240006D1CF1E7284630BD10B5044604E00B787C
:1002500000F8013B03B1491C521EF8D2204610BDE4
:10026000421C10F8011B0029FBD1801A704710B501
:10027000002200E0521C835C8C5CA34201D1002B65
:10028000F8D1D8B2E1B2401A10BD2DE9F04791463D
:100290000F4680460446002614F8015B2DB100F09D
:1002A00097FB0068405DC007F6D12B2D02D02D2DA5
:1002B00018D0641E4A463946204600F08DFB27B10F
:1002C0003968A14201D1C7F8008071054FF00204DE
:1002D0000BD54042002803DD05F0C2FE0460A007F4
:1002E000BDE8F08746F48066E4E70028F8DA05F018
:1002F000B7FE04606FF00040F2E7F0B480EA01025C
:10030000D40F4200B2EB410F02D20246084611461A
:100310004A0042D0C30DDDB2C1F3C752AD1A202D41
:1003200035DAC1F3160141F4000204B15242C5F1BD
:10033000200602FA06F12A411044B3EBD05F23D025
:10034000C4B1012DA0EBC35009DCF0BC4FF000425A
:1003500002EAC352DBB200F5000000F095BB40009A
:1003600000F1807000EBC350A0F1807040EAD170C2
:10037000490009E0490841EAC071A0EBC35000F50B
:100380000000400800EBC350F0BC00F074BB6142B9
:10039000012202EB4101001BF6E7F0BC704781F03F
:1003A0000041AAE780F00040A7E780EA010210B50B
:1003B00002F00043400022D04A001FD0010E01EBA2
:1003C0001261C0F35600C2F3560240F4000042F43A
:1003D0000002A0FB022000047F39140400D0401C5E
:1003E00050EA124001D44000491EC2B20C0604EB90
:1003F000D010401C4008802A02D003E0002010BD2D
:1004000020F00100002900DA0020184310BD30B4AC
:1004100080EA010202F0004530F0004221F0004085
:1004200013D090B1C30DD40DC2F31601C0F3160062
:10043000E41A41F4000140F400027D34914201D3FA
:10044000641C00E04900002C02DA30BC0020704738
:100450004FF400000023914201D3891A034340085E
:100460004FEA4101F7D151B1914202D14FF0004121
:1004700005E002D24FF0010101E06FF0010103EB52
:10048000C450284430BC00F0F6BA2DE9FE4F804637
:1004900081EA0300C00F0C46009021F0004123F0D8
:1004A0000045B8EB0200A94105D2404621469046DE
:1004B0001C460B46024623F00040104347D0270D50
:1004C000C7F30A00C3F30A510290401A0190402872
:1004D0006BDAC3F3130040F4801B0098924620B1FE
:1004E0000023D2EB030A63EB0B0B01985946C0F1D2
:1004F0004002504600F04BFA06460D46504659461B
:10050000019A00F053FA10EB08006141002487EAD9
:10051000115284EAE7731A4340D0009A62B3019AF9
:10052000012A4FEA075215DC001B61EB02014FF074
:10053000004202EA0752CDE90042001C41F5801159
:1005400032462B4600F0DDFA03B0BDE8F08F40469E
:100550002146F9E7001B61EB0201001C41F5801305
:1005600000185B412018A2F5001747EB030140EA91
:10057000D570B6196D4111E06D084FEA360645EAAF
:10058000C0754FEA0752001B61EB0201001C41F5E8
:10059000801149084FEA30000019514132462B467C
:1005A00003B0BDE8F04F00F09DBA00980122400072
:1005B0000023D0EB020263EBE073009821464FEA80
:1005C000E074B8EB000061EB0401E9E783F000435D
:1005D0005BE781F0004158E72DE9FE4F81EA030413
:1005E00004F0004421F0004100944FF0000B23F090
:1005F000004350EA01045ED052EA03045BD0C3F327
:100600000A54C1F30A552C44A4F2F3340194A0FB1C
:100610000254C1F3130141F48011C3F3130343F4F3
:10062000801301FB024400FB034E840A970A44EA4C
:10063000815447EA8357A4FB076802958D0A05FB9E
:1006400007854FEA932C04FB0C542705029D4FEAC3
:10065000065847EA1637B5EB08056EEB070C870E10
:10066000920E47EA811742EA8312A7FB0201B6EB1A
:100670000B0164EB00042B0D43EA0C335E1844EBD2
:100680001C50DA465146E7FB0201C5F313044FEA5A
:100690000B3343EA14534FEA0432019C43EA060346
:1006A000A4F10C040294009CCDE900B400F029FAF6
:1006B00003B0BDE8F08F00200146F9E72DE9F04DC9
:1006C00081EA030404F0004B21F0004514464FF08A
:1006D000000A23F0004150EA050220D054EA01024A
:1006E0001DD0C5F30A570246C5F31303C1F3130027
:1006F000C1F30A5640F4801543F48013A7EB0608B3
:10070000101BD64608F2FD3873EB050002D308F142
:10071000010801E092185B41B8F1000F03DA0020F4
:100720000146BDE8F08D00204FF480110646844656
:100730000EE0171B73EB050705D3121B63EB0503D4
:1007400006434CEA010C49084FEA300092185B411D
:1007500050EA0107EDD152EA030012D082EA040008
:1007600083EA0501084305D0101BAB4106D20122E4
:10077000002306E000224FF0004302E06FF0010288
:1007800053101AEB06004CEB085110EB0A0041EB3A
:100790000B01BDE8F04D00F0A5B9C10F80EAE07093
:1007A0000844CA079623002100F06EB99623002260
:1007B000114600F069B90EB5C10F80EAE070084437
:1007C000CA07002140F233438DE80E000A460B466B
:1007D00000F097F903B000BD00F0004220F00040A7
:1007E000C10DC0F3160040F400007F2901DA00209B
:1007F0007047962903DCC1F19601C84001E09639A3
:100800008840002AF4D04042704720F00040C10DDB
:10081000C0F3160040F400007F2901DA0020704781
:10082000962903DCC1F19601C8407047963988408B
:10083000704770B5C1F30A5201F000450024C1F3BE
:10084000130140F2FF3341F480119A4201DA002093
:1008500070BD40F233439A42A2F2334203DC52426B
:10086000FFF7ACFC00E090402C43F1D0404270BD5B
:1008700000F0004230F000400AD0C10D01F5607177
:10088000C0F3160042EA0151C20840071143704705
:10089000002001467047000030B5041E71F10004CD
:1008A00004DB4FF00044404264EB0101141E73F17D
:1008B000000405DB1C464FF00043524263EB040387
:1008C000994208BF904230BD01F0004330B421F09E
:1008D000004150EA010206D00A0DA2F56072C1F390
:1008E0001301002A02DC30BC00207047440F44EAA8
:1008F000C104C100E01830BC00EBC25000F0BBB82E
:1009000030B50B46014600202022012409E021FADF
:1009100002F59D4205D303FA02F5491B04FA02F5DC
:100920002844151EA2F10102F1DC30BD2DE9F05F73
:100930000546002092469B4688460646814640244E
:100940001BE02846414647462246FFF737FC534600
:100950005A46C01A914110D311461846224600F05B
:1009600016F82D1A67EB01084F4622460120002198
:1009700000F00DF817EB00094E41201EA4F1010410
:10098000DFDC484631462A464346BDE8F09F202A30
:1009900004DB203A00FA02F1002070479140C2F1D6
:1009A000200320FA03F3194390407047202A06DB06
:1009B000CB17203A41FA02F043EAE07306E041FA2D
:1009C00002F3D040C2F1200291400843194670471B
:1009D000004870471CA700082DE9F05F82460078A8
:1009E000002715468B460AF10104B946302801D08C
:1009F0009DB113E014F8010B0127782803D0582883
:100A000001D045B10AE00DB1102D07D10027102506
:100A100014F8010B02E0082500E00A250026B04684
:100A20000EE005FB080005FB06F1012701EB10466F
:100A30001FFA80F8B6F5803F00D3B94614F8010BD1
:100A4000294600F0D7F80028EBDABBF1000F05D0FB
:100A50000FB1641E00E05446CBF80040B9F1000F1E
:100A600006D005F0FDFA02210160C81EBDE8F09F26
:100A700048EA0640FAE70029A8BF7047401C490031
:100A800008BF20F00100704710B4B0FA80FC00FAF3
:100A90000CF050EA010404BF10BC704749B1CCF11E
:100AA000200421FA04F411FA0CF118BF01212143AA
:100AB0000843A3EB0C01CB1D4FEA00614FEA102065
:100AC00042BF002010BC704700EBC3501044002907
:100AD000A4BF10BC7047401C490008BF20F00100B3
:100AE00010BC704710B5141E73F1000408DA401CE6
:100AF00041F1000192185B411A4301D120F001003D
:100B000010BD2DE9F04D92469B4611B1B1FA81F22C
:100B100002E0B0FA80F220329046FFF738FF044638
:100B20000F4640EA0A0041EA0B0153465A46084381
:100B300013D0114653EA010019D0C8F140025046C3
:100B4000FFF73CFB05460E46504659464246FFF726
:100B50001EFF084305D0012004E020463946BDE8C9
:100B6000F08D0020054346EAE0762C4337430A988F
:100B70006305E40AA0EB08000022FD0A44EA47549A
:100B80000A3002D500200146E9E701051019694144
:100B9000DDE9084500196941BDE8F04DA2E7C1F360
:100BA0000A52C1F3130140F2FF3341F480119A421B
:100BB00002DA00200146704740F233439A42A2F223
:100BC000334202DC5242FFF7F9BAFFF7E0BE000001
:100BD000064C074D06E0E06840F0010394E807008A
:100BE00098471034AC42F6D3FFF784FA84A7000884
:100BF000A4A700083A2800D2303820F02002412A69
:100C000001D3A2F13700884201D34FF0FF30704783
:100C100070B5044600688168C943C90717D1816867
:100C200021F00101816001F0E3FA05460AE000BF0E
:100C300001F0DEFA401B022804D920688068C04316
:100C4000C00706D020688068C043C007F0D00020ED
:100C500070BDA06A40F01000A062E06A40F00100A0
:100C6000E062012070BDFEE7044B4FF4005108B173
:100C7000012200E00022184601F0B5BA0010014040
:100C800030B58BB0194800F044FF20B1512000F07E
:100C90000DFB00F059FB1648002440F20161C460CE
:100CA00084600160047508210161012505940194A7
:100CB000029408950494009469460C480394CDE985
:100CC000064500F025FD08B100F03EFB00940194BC
:100CD0000595029469460548CDE9034500F018FDE5
:100CE000002801D000F030FB0BB030BD34010020F3
:100CF000EC00002010B58AB0044607AB6A4600211C
:100D00000B4800F08EFD28B10AA005F05DF9002027
:100D10000AB010BD0098A0F5A0618139F7D107A8ED
:100D2000425C6254491C0829FADB0120F0E700000C
:100D3000340100205B5741524E5D4661696C656429
:100D400020746F20676574206D657373616765201B
:100D500066726F6D204649464F300A002DE9FE430A
:100D60001C4690460D46064607F028FF022810D183
:100D70001E48406807F048FC074607F019FF874205
:100D800007D0502080F31188BFF34F8FBFF36F8FD0
:100D9000FEE78DF800608DF80150280A8DF80200FA
:100DA0008DF80440200A8DF80500200C8DF806000F
:100DB000200E8DF807008DF8038002AB6A460C49BF
:100DC0000C4800F047FC20B1522000F06FFA00F010
:100DD000BBFA07F0F3FE02284FF0010003D001F048
:100DE000FBF8BDE8FE8306F0A9FFFAE7D400002077
:100DF000EC00002034010020B0F5004F01D347F68D
:100E0000FF700346012246F28301232004F09ABBBF
:100E1000B0F5004F01D347F6FF700346012246F2BA
:100E20008401232004F08EBB70B50D460446FFF705
:100E3000E3FF204600F008F82846FFF7E9FF2846C0
:100E4000BDE8704000F00CB8B0F5004F01D347F694
:100E5000FF700346022246F28301232004F072BB96
:100E6000B0F5004F01D347F6FF700346022246F269
:100E70008401232004F066BB0346002242F20801ED
:100E80002B2004F05FBB0323002246F260012F20D9
:100E900004F058BB411E0A2908D205490346052221
:100EA000087042F226012B2004F04CBB7047000072
:100EB000D400002070B5114A0E460F49127851F83F
:100EC00022502946FFF7A3FAFFF786FC044686F076
:100ED00000402946FFF79BFAFFF77EFC01462046BB
:100EE00061F31F40BDE870400346032246F2FF0154
:100EF000232004F027BB0000EC900008D400002061
:100F000010B546F240040623002221462B2004F0AF
:100F100019FB0723002221462B2004F013FB214656
:100F20000F230022BDE810402B2004F00BBB002350
:100F30001A4646F240012B2004F004BB2DE9F0478D
:100F40008CB007F03BFE924C022806D1606820B9B5
:100F5000042007F0A6F9606020B107F02FFE0228F8
:100F600008D00CE0502080F31188BFF34F8FBFF3FF
:100F70006F8FFEE74FF0FF31606807F067FD0026D6
:100F800005E009AB02AA0021824800F04AFC0021DA
:100F9000804800F035FC0028F3D100231A4642F2C5
:100FA0003501402004F0CEFA012006F0C7FE684665
:100FB000FFF7A0FE00287DD09DF80710019861F38F
:100FC0001F60FFF7F8FB744A744BFFF705FBFFF750
:100FD0007BFC734D00230322C5F8320046F27701F3
:100FE000402004F0AFFA012006F0A8FE6846FFF7A3
:100FF00081FE0028DFD09DF80700019F60F31F6786
:1010000038B2FFF7D8FBDFF89C91DFF89CA14A4685
:101010005346FFF7E1FAFFF757FC45F8360F8046D5
:101020003814FFF7C8FB4A465346FFF7D5FAFFF7D7
:101030004BFC686001464046FFF75FF9A86000235B
:10104000032246F26C014020363D04F07BFA012079
:1010500006F074FE6846FFF74DFE00282AD09DF882
:101060000700019F60F31F6738B2FFF7A4FB4A46F1
:101070005346FFF7B1FAFFF727FCA84645F82A0FB9
:101080003814FFF78AFB80F00040FFF7F1FB4A4677
:101090005346FFF7A1FAFFF717FC6860002303220D
:1010A00046F2FF01402004F04DFA012006F046FE12
:1010B000684600E03FE0FFF71DFEE0B39DF8070043
:1010C000019D217860F31F65384850F8217028B2DF
:1010D000FFF763FB3946FFF768F9C8F822002814C8
:1010E000FFF75BFB3946FFF760F980F00041C8F875
:1010F000261000231A4642F20801402004F022FA8A
:10110000012006F01BFE6846FFF7F4FD98B19DF83C
:1011100007100198002361F31F6088F821004546FD
:101120001A4646F24101402004F00CFA022006F073
:1011300005FE684600E01DE0FFF7DCFDD0B19DF83C
:101140000700019960F31F6188B2090C40EA0102AF
:10115000D20B06D0002200F00F002A70072802D020
:1011600005E00122F7E701F00F00072807D0002073
:101170006870012607F022FD022802D004E0012059
:10118000F6E7606807F09CFA0CB03046BDE8F087DF
:10119000D4000020340100207B14AE47E17A843F64
:1011A0009C3000209A9999999999B93FEC90000840
:1011B00000B589B0242206496846FFF70FF86A4651
:1011C0000021044805F01AFE0349886009B000BDFB
:1011D00014900008E5790008A0000020014800F004
:1011E00023BE00006C030020014800F01DBE00007B
:1011F000B0030020014800F017BE0000B00100203D
:10120000014800F011BE0000F40300207047000008
:101210002DE9FE43224800260168D1B10024804612
:101220002546204FDFF8809004F04EFC00231A463C
:101230000821204604F0C8F9009501950295322353
:101240000A226946D8F8000002F09CFB3D5518B10F
:101250001DE00020BDE8FE838DF80A50684604F0CA
:10126000C5FA10F1FF4F0ED2012109EB04023955E6
:10127000D1700C49761C2839F6B241F8240032208E
:1012800005F046FC03E009EB04003D55C570052060
:1012900005F03EFC641CE4B2092CC5D93046D9E700
:1012A000DC0000204C3600209C30002038B504467D
:1012B000FFF73DFE1A490020087004F0F9FA1948BA
:1012C000406806F0A7FD1848006806F0A3FD17481F
:1012D000006806F09FFD642006F030FD06F0E6FB96
:1012E00003F09EFD03F0EAFC114800902C232D2210
:1012F0000521292003F03CFE094822460DA1453076
:1013000004F08AFE064A062345323221142003F0F7
:101310008DFE03F0F9FEBDE8384006F0E7BB0000A3
:101320009C300020B4000020E0000020D00000200D
:10133000189D00084552524F5220434F44453A30C1
:10134000782530325800000072B6FEE7F8B506F096
:10135000D1FA044600EBC400800006F0C3F9050092
:1013600009D06A46214606F0CBFA0646009820B11D
:1013700000273C4616E01748F8BD284606F0CAFB91
:101380000020F8BD04EBC40005EB800012A140680A
:10139000FEF748FF28B104EBC40005EB8000876925
:1013A00002E0641CB442EDD3284606F0B3FB00987B
:1013B000FFF7FCF904463846FFF7F8F9084D2946CF
:1013C000FEF7F3FF2146FFF722F82946BDE8F84073
:1013D000FEF7E8BF000080BF49444C450000000014
:1013E0000000C842F8B50024009490F82420254657
:1013F000012A12D0012280F824204A681F23072ADC
:101400000DD20668776B521E02EB820293409F4317
:101410000B6893401F43776319E00220F8BD06680C
:101420000D2A0AD2376BD21F02EB820293409F43F0
:101430000B6893401F43376309E0F76A0D3A02EBEC
:10144000820293409F430B6893401F43F7620A68F0
:10145000072306680A2A0AD3F7680A3A02EB42020F
:1014600093409F438B6893401F43F76008E03769C0
:1014700002EB420293409F438B6893401F433761C6
:101480000A68102A01D0112A20D1124B02689A4210
:1014900017D193681B0219D4936843F40003936037
:1014A0000968102912D10C490C4A0968B1FBF2F104
:1014B00001EB8101490000E0491E00910029FBD1A8
:1014C00004E0816A41F020018162012480F8245007
:1014D0002046F8BD002401401400002040420F00C7
:1014E0002DE9F0414FF0000704003D467ED0A06A90
:1014F000002628B9E66284F82460204600F07EF8D1
:101500002046FFF785FBA16AC90600D420B1A06A76
:1015100040F01000A06269E0A16A21F4885141F016
:101520000201A1626268E169237B0A4347EA430141
:101530000A43A1684FF48077B94209D0012907D046
:101540005FF0000194F814C0BCF1010F02D00AE072
:101550003946F7E7F3B1A36A43F02003A362E36AD5
:1015600043F00103E3622368D3F804C02CF4694C10
:101570004CEA010CC3F804C021688B68DFF870C026
:1015800003EA0C0313438B60A168B9420BD0012915
:1015900009D00CE0DFF85CC0A3690CEB43330B43CC
:1015A00043F40061DFE7218A0D05A5F58015216868
:1015B000CB6A23F470032B43CB62216889680E4BFE
:1015C0001940914208D1E662A16A21F0020141F07E
:1015D0000101A162BDE8F081A06A20F0020040F0A4
:1015E0001000A062E06A40F00100E0620120F1E733
:1015F000FDF7E1FF00E0FFFFFE0E1FFF00B585B025
:101600000021009101910291039100680E498842E6
:1016100018D10E48816941F400718161816901F43A
:1016200000710491816941F004018161806969461A
:1016300000F0040004900220009003200190044870
:1016400000F0DCFC05B000BD0024014000100240A9
:1016500000080140F0B590F820500468A468012DFE
:1016600005D0022D03D0416A41F480214DE014F0F1
:10167000406F01D1E50045D5C4F301640125A540C3
:101680001D608D684FF4C0739DB1CE6835434E68C0
:1016900045EAC605066803EB0417F5514FF4C27519
:1016A000076805EB04150E697E51097D012905D0F7
:1016B00009E00E88CD6845EA4655EBE701684E59CA
:1016C00046F480764E511179D2F805504FF4C67623
:1016D00041EA0521056806EB0416A9511178D2F8F4
:1016E00001204FF4C47541EA0221026805EB04159C
:1016F0005151006803EB0411425842F0010242507C
:101700000020F0BD416A41F4001141620120F0BDAA
:1017100010B590F820300268012B07D0022B05D0BD
:10172000416A41F480214162012010BDD2F80002DB
:1017300040F00100C2F80002087D00F01F03012004
:101740009840D2F81C328343C2F81C32CB69B3B93B
:10175000D2F80C328343C2F80C328C894B6864F3A4
:101760001F434C6902EBC404C4F840320C890B6877
:1017700064F31F434C6902EBC404C4F84432CB69E0
:10178000012B16D1D2F80C320343C2F80C320C886C
:101790004B6864F31F434C6902EBC404C4F8403245
:1017A0000C89CB6864F31F434C6902EBC404C4F892
:1017B00044328B69002BD2F804320FD053EA000375
:1017C000C2F804320B69002BD2F8143208D003435C
:1017D000C2F81432096A012904D008E08343EFE714
:1017E0008343F5E7D2F81C120143C2F81C12D2F869
:1017F000000220F00100C2F80002002010BD704776
:101800000246002092F82030012B01D0022B05D196
:10181000106821B1D0F8100000F003007047C068D4
:10182000FAE770B590F82040012C05D0022C03D0C7
:10183000416A41F4802128E0046809B32469A407BF
:1018400020D04FF4D874056804EB01142D5915F01D
:101850000405956005682D591AD0ED085560056896
:101860002C5904F00204D4604FF4DA74056804EBD8
:1018700001142E5906F00F06082E0CD308250DE092
:10188000E468DCE7416A41F400114162012070BD67
:101890006D0D1560E3E72D5905F00F05156105681D
:1018A0002D59C5F30725956105682C59240C546101
:1018B0004FF4DC72046802EB0112A4581C70046837
:1018C000A458240A5C700468A458240C9C70046812
:1018D000A258120EDA704FF4DE72046802EB0112A5
:1018E000A4581C710468A458240A5C710468A458A4
:1018F000240C9C710468A258120EDA71006829B198
:10190000016941F020010161002070BDC16841F012
:101910002001C160F8E72DE9F05F0546006800246A
:101920004669D0F804908768D0F80CB0D0F810A0C1
:10193000D0F81880F10748D0F90714D00121816050
:10194000B80703D5284600F0F6F90CE0780702D571
:101950004FF4006407E0380702D54FF4805402E0EA
:10196000284600F0E7F9F80516D529684FF480708D
:101970008860B80503D5284600F0DFF90CE078054B
:1019800002D544F4005407E0380502D544F48044FD
:1019900002E0284600F0D0F9F80316D529684FF484
:1019A00080308860B80303D5284600F0C8F90CE001
:1019B000780302D544F4004407E0380302D544F428
:1019C000803402E0284600F0B9F9300707D55FEA15
:1019D000CB6004D52968102044F40074C8607007F7
:1019E0004FF0080707D55FEA0B7004D52868C76079
:1019F000284600F06DF9B00706D52868C068800752
:101A000002D0284600F065F9700607D55FEACA6083
:101A100004D52968102044F480640861B00607D515
:101A20005FEA0A7004D528680761284600F052F979
:101A3000F00606D528680069800702D0284600F025
:101A40004AF9B00308D55FEAC96005D529681020B6
:101A50004860284600F040F9F00307D55FEA0970B6
:101A600004D528684760284600F06AF9300446D556
:101A70005FEA497040D5F00504D55FEAC87001D02F
:101A800044F00104B00504D55FEA887001D544F044
:101A90000204700504D55FEA487001D544F00404DF
:101AA000300529D518F0700F26D008F070004028B6
:101AB00015D006DC102809D020280AD0302816D1ED
:101AC0000AE050280ED0602811D10EE044F008043E
:101AD0000DE044F010040AE044F0200407E044F074
:101AE000400404E044F0800401E044F48074286879
:101AF000816921F070018161296804204860002C0F
:101B000005D0686A204368622846FFF778FEBDE882
:101B1000F09F70B5040003D094F8200010B104E0E9
:101B2000012070BD204600F081F82068016841F076
:101B30000101016000F05CFB0546052604E000F0B1
:101B400057FB401B0A2811D820684068C007F6D010
:101B50002068016821F00201016000F049FB0546A0
:101B60000BE000F045FB401B0A2806D9606A40F4F0
:101B70000030606284F82060D2E720684068800707
:101B8000EFD4207E0128206801683DD021F080013B
:101B90000160607E01282068016838D021F0400192
:101BA0000160A07E01282068016833D021F0200167
:101BB0000160E07E0128206801682ED041F010010C
:101BC0000160207F01282068016829D021F00801E8
:101BD0000160607F01282068016824D021F00401A1
:101BE0000160D4E902010843D4E904121143084317
:101BF0006168491E08432168C861002060620120B5
:101C000084F82000002070BD41F08001C0E741F061
:101C10004001C5E741F02001CAE721F01001CFE7FC
:101C200041F00801D4E741F00401D9E710B586B0CE
:101C3000002100910191029103910068204988429E
:101C40003BD12048C16941F00071C161C16901F017
:101C500000710491816941F00801816180691A4C29
:101C600000F0080004904FF4807000906946204610
:101C700000F0C4F960150090022001900320039049
:101C80006946204600F0BAF91048416821F4C04185
:101C900041F0E06141F480414160002205211320C0
:101CA00000F07EFE132000F06DFE002205211420BE
:101CB00000F076FE142000F065FE06B010BD0000B6
:101CC0000064004000100240000C01400000014090
:101CD00070477047704770477047000070B5044602
:101CE00090F82000012804D0606A40F4002060626F
:101CF00018E0022084F820002068016821F001012A
:101D0000016000F075FA05460EE000BF00F070FAC1
:101D1000401B0A2808D9606A40F400306062052040
:101D200084F82000012070BD20684068C007EDD114
:101D3000606270BD7047704770477047704770476A
:101D4000704710B590F821100022022905D0042117
:101D5000816380F82020012010BD01680B6823F00A
:101D60000E030B6001680B6823F001030B6090F811
:101D70004030C46B012101FA03F3636080F8211045
:101D800080F82020104610BD10B590F821100024D6
:101D9000022903D00421816301243DE001680A681F
:101DA00022F00E020A6001680A6822F001020A604D
:101DB0001A4A0168914201D1012121E0174A1432E7
:101DC000914201D110211BE0144A2832914201D1E5
:101DD000891515E0114A3C32914201D189140FE076
:101DE0000E4A5032914202D14FF4803108E00B4A42
:101DF0006432914202D14FF4801101E04FF08071C2
:101E0000064A083A5160012180F82110002180F82B
:101E10002010416B01B18847204610BD08000240E8
:101E200090F82100704700002DE9F05FC16B0C684D
:101E300001680B68D0F840C0042202FA0CF2494D48
:101E4000DFF824A1494E4A4FDFF828B1DFF828E136
:101E500022422CD05A072AD50A68920603D40A686F
:101E600022F004020A600168A94201D1042219E0AB
:101E7000514501D1402215E0B14202D14FF48062B8
:101E800010E0B94202D14FF480420BE0594502D133
:101E90004FF4802206E0714502D14FF4800201E048
:101EA0004FF080622F4908394A60C16A3BE04FF029
:101EB000020808FA0CF818EA040F4FF000094FF076
:101EC000010235D05FEA837832D50B689B0605D4D2
:101ED0000B6823F00A030B6080F821200168A942F7
:101EE00001D1022219E0514501D1202215E0B14271
:101EF00002D14FF4007210E0B94202D14FF4005207
:101F00000BE0594502D14FF4003206E0714502D191
:101F10004FF4001201E04FF00072124908394A6094
:101F200080F82090816A00291AD0BDE8F05F084748
:101F3000082505FA0CF5254212D01B0710D50B68B1
:101F400023F00E030B6090F84010C36B02FA01F10E
:101F50005960826380F8212080F82090016BE2E7CD
:101F6000BDE8F09F080002401C0002403000024023
:101F700044000240580002406C00024030B528B3D3
:101F800008C8134914221944B1FBF2F18900C16356
:101F900010498163022141771A6843F6F0718A4340
:101FA000D0E900142143D0E902452C4321430469C0
:101FB000214344692143846921431143196000216D
:101FC0004163012242770177084630BD012030BDD0
:101FD000F8FFFDBF0000024070B5044600F008F9AC
:101FE0000546601C02D004480078044400F000F963
:101FF000401BA042FAD370BD080000202DE9F84F25
:10200000DFF8B8910024A9F1040B23460F2709F14A
:10201000040AABF1040EC9E00125A5402A40AA42FA
:102020007DD1674ED1F804C0ACEB0608B44532D080
:1020300014DCBCF1030F3AD009DCBCF1000F2AD04C
:10204000BCF1010F1CD0BCF1020F31D11DE0BCF17D
:10205000110F17D0BCF1120F2AD119E0B8F5881F63
:1020600019D006DCB8F5803F15D0B8F5801F1FD118
:1020700011E0B8F5001F0ED0B8F5041F18D10AE022
:10208000CB6815E0CB681B1D12E0CB6808330FE06E
:10209000CB680C330CE08B682BB1012B4FF008039D
:1020A00003D0456104E0042302E0056100E0002361
:1020B000FF2A01D8064601E000F104064FEA840534
:1020C00001D9A5F12005D6F8008007FA05FC28EA19
:1020D0000C0803FA05F548EA0508C6F800804D68C3
:1020E000ED0062D5374DAE6946F00106AE61AD69CF
:1020F00024F0030605F001050095334D06EB050CB1
:10210000DCF80850A607360F07FA06F825EA080596
:10211000DFF8B880404503D14FF0000817E044E0F5
:10212000DFF8AC80404502D14FF001080FE0DFF846
:10213000A480404502D14FF0020808E0DFF8988003
:10214000404502D14FF0030801E04FF0040808FABF
:1021500006F848EA0508CCF808804D68D9F8006010
:10216000ED024D4601D5164300E096432E604D68C2
:10217000DAF80060AD02554601D5164300E09643FB
:102180002E604D68DBF80060AD035D4601D5164357
:1021900000E096432E604D68DEF80060ED03754662
:1021A00001D5164300E096432E60641C0D682A4654
:1021B000E5407FF431AFBDE8F88F0000080401402E
:1021C0000000111000100240000001400008014012
:1021D000000C0140001001400014014080680840DC
:1021E00000D0012070470AB1016170470904FBE784
:1021F0000148806870470000080000207047704761
:102200002DE9F041016804464A694E6890F83E00A5
:102210000025D743FA050BD4F243D20508D46FF456
:10222000807201254A6121680A6842F400420A600E
:10223000B90508D4F143C90505D422686FF40071CB
:1022400045F002055161790525D4F143C90522D431
:10225000638D94F83D10226B202808D13BB92129C9
:1022600010D029290ED0282901D1212A0AD022688C
:102270006FF48061516145F00405102806D04028B4
:1022800004D008E0204602F0CBF804E020680168A2
:1022900041F400710160380508D4F043C00505D44D
:1022A00021686FF4006045F008054861002D07D0F3
:1022B000206C284320642046BDE8F04101F0AABC10
:1022C000BDE8F0812DE9F047026800215368C66A35
:1022D00090F83E4090F83D50102C12D0402C10D079
:1022E000046C002C7DD05469E443A6077AD4DE4305
:1022F000B60577D4036C03B19169BDE8F04702F0ED
:102300006BB8976951694FF42A0CC9435FEAC178E9
:102310004FF02A4904D066452AD04E4528D010E017
:10232000DE43B6050DD4C16A614501D1012103E048
:10233000C16A494501D10821C162BDE8F04701F0F9
:102340005DBF0E0716D4DE43B60513D4416CC9B287
:102350001161416B09B1896A29B9816B002907D0E4
:10236000896A002904D00068416841F40061416035
:10237000BDE8F0878E0706D4DE43B60503D4BDE87A
:10238000F04701F08FBEFE43526876074FEA0252D3
:102390001DD4002AECDB0A0608D4DA43520505D422
:1023A000490705D5BDE8F04701F020BE4907DFD455
:1023B000D9438905DCD4212D05D0402CD8D1BDE8E6
:1023C000F04701F061BFBDE8F04701F0CDBD002A44
:1023D000CEDB4A060BD4DA43520508D4490708D5A8
:1023E00001E00DE00EE0BDE8F04701F043BD490714
:1023F000BED4D9438905BBD4BDE8F04701F0CDBCBC
:10240000916970E7E10606D4D943890503D4BDE894
:10241000F04702F04DB82821212D27D0292D25D0B5
:10242000650655D4DD436D0552D4640752D590F846
:102430003D30448D002C9BD01269446A2270426A60
:10244000521C4262428D521E4285428D002A8FD11B
:102450002A2B8DD10268536823F4806353602222B3
:10246000026380F83D1000F001FA81E7250623D4CD
:10247000DD436D0520D4640720D590F83D30448DB0
:10248000002CF2D0446A24781461426A521C4262E1
:10249000428D521E4285428D002AE6D1292BE4D17D
:1024A0000268536823F4806353602122026380F83A
:1024B0003D1000F0DCF95BE76107D6D4D94389050C
:1024C000D3D4418D0029D0D0416A097811610AE046
:1024D0006107CAD4D9438905C7D4418D0029C4D026
:1024E0001169426A1170416A491C4162418D491E5D
:1024F00041853DE77047000070B5040025D094F891
:102500003D00002520B984F83C50204600F056F9E3
:10251000242084F83D002068016821F00101016059
:102520002068016841F4004101602068016821F4DD
:102530000041016000F0A4FB4D4A6168914201D85E
:102540004C4900E04C49884201D2012070BD4B4902
:102550002368B0FBF1F15E6826F03F060E435E6033
:102560006368934206D94FF4967359434FF47A73D4
:10257000B1FBF3F12368491C1E6A26F03F06314384
:1025800019626168914210D84900401EB0FBF1F217
:10259000521CC2F30B02042A01D2042022E0B0FB39
:1025A000F1F0401CC0F30B001CE0A268F2B301EB99
:1025B000C10303EB0116431EB3FBF6F35B1C43F4AC
:1025C00080431B0549D092B301EBC10202EB01111C
:1025D000401EB0FBF1F0401CC0F30B0040F4804003
:1025E00040F400402168CA694CF6FF739A431043D7
:1025F000C861D4E9071001432068026822F0C002D4
:1026000011430160D4E9030101432068826848F264
:10261000FF339A4311438160D4E9050108432168DF
:10262000CA6822F0FF021043C86001E00EE016E025
:102630002068016841F0010101602564202084F8D0
:102640003D00256384F83E50002070BD01EB41063B
:10265000431EB3FBF6F35B1CB3E70120C2E701EBBB
:102660004101401EB0FBF1F0401CC0F30B00B7E786
:10267000A086010080841E0000093D0040420F003A
:102680007047704770477047704700002DE9FF4F53
:1026900083B09A46DDE9119793460446DDF8408001
:1026A000FFF7A6FD054694F83D0020287FD11923A9
:1026B000012240492046009501F0D4FF002876D140
:1026C00094F83C00012872D0012084F83C00206876
:1026D0000168C90703D1016841F001010160206868
:1026E000016821F400610160212084F83D00402050
:1026F00084F83E0000262664C4F82480A4F82A90BA
:10270000608D20852C48E062CDE9007553465A461D
:102710002046049901F00CFE70B930E02A46394693
:10272000204602F045F858B1206C042804D12068F6
:10273000016841F400710160012007B0BDE8F08F2D
:10274000606A216800780861606A401C6062218DBF
:10275000491E89B22185628D521E628522685369A5
:10276000DB435B070BD469B100781061606A401CE1
:102770006062208D401E2085608D401E6085208D0A
:102780000028CBD12A463946204601F03FFF0028D9
:10279000CAD154F83D0B016841F40071016020205A
:1027A00004F81E09E67766770020C6E7FFE70220F7
:1027B000C3E70000020010000000FFFF70B586B004
:1027C000002506460095019502950395006822496B
:1027D00088423ED1214CA06940F00800A061A06968
:1027E000694600F008000490C0200090122001907B
:1027F000032003901A48FFF701FCE06940F4001041
:10280000E061E069184C00F4001004901548206065
:102810001020C4E901058020C4E903056561A561B4
:102820002046E561FFF7AAFB08B1FEF78DFD746352
:1028300000220C211F20666200F0B2F81F2000F079
:10284000A1F800220C21202000F0AAF8202000F09E
:1028500099F806B070BD000000540040001002401E
:10286000000C01406C000240B0010020704770472E
:102870000248816802781144816070470800002096
:10288000074810B5016841F010010160032000F015
:10289000A7F80F2000F006F800F050F8002010BD57
:1028A0000020024030B505461F4887B0C16941F09D
:1028B0000401C161C06906A900F00400009001A8EC
:1028C00000F0BEF90498B0B100F0DAF94000174901
:1028D000174AB0FBF1F11748491E0260416040F20F
:1028E000E7320021C0E903218160816100F066FCCC
:1028F000040003D015E000F0C3F9E8E70D4800F04C
:10290000A9FC04000DD11E2000F03CF8102D07D2C8
:10291000002229461E2000F043F80748056000E029
:10292000012407B0204630BD0010024040420F0095
:1029300000080040380400200C0000200F4808B5B3
:10294000816941F001018161816901F0010100911A
:10295000C16941F08051C161C069002200F080501E
:1029600000900F21901E00F01BF80548416821F0EF
:10297000E06141F00071416008BD000000100240BC
:1029800000000140002809DB00F01F0201219140F6
:102990004009800000F1E020C0F8001170470000FD
:1029A000F0B40E4B1B680C46C3F30223C3F10705BA
:1029B000042D00D90425191D072901D2002300E0A8
:1029C000DB1E012606FA05F1491E214099409E4072
:1029D000761E16403143F0BC03F032BB0CED00E034
:1029E000064900F0070208684FF6FF03184040EA66
:1029F0000220034A10430860704700000CED00E01D
:102A00000000FA05BFF34F8F05480168054A01F43D
:102A1000E06111430160BFF34F8F00BFFDE700008D
:102A20000CED00E00400FA052DE9F84305460078B6
:102A3000354CC00754D0E0690026C00008D4E069D6
:102A400040F08050E061E069012600F08050009085
:102A50002E480168C90512D40168804641F480718E
:102A60000160FFF7C5FB074605E000BFFFF7C0FBAD
:102A7000C01B642823D8D8F80000C005F6D5206A0A
:102A800010F4407021D0A98801F4407181421CD01B
:102A9000206A1F49012220F440700A6000220A6067
:102AA0002062C00711D0FFF7A3FB074641F2883828
:102AB00008E000BFFFF79CFBC11B414502D9032082
:102AC000BDE8F883206A8007F4D5206A696820F49D
:102AD0004070084320621EB1E06920F08050E06140
:102AE0002878800705D56068A96820F4404008432D
:102AF00060602878C00605D56068E96820F4800029
:102B0000084360600020DBE70010024000700040D6
:102B1000400442422DE9F0470F46050061D0434E84
:102B2000306800F00700B84209D2306820F0070092
:102B300038433060306800F00700B84251D128684F
:102B40003B4C810712D5400703D5606840F4E06034
:102B500060602878000703D5606840F460506060CA
:102B60006068A96820F0F000084360602878C0071A
:102B700028D06868012810D02168022810D0890761
:102B800000292EDA616821F0030101436160FFF73B
:102B90002FFB804641F288390DE021688903EFE779
:102BA0008901EDE7FFF724FBA0EB0801494502D9B5
:102BB0000320BDE8F0876068696800F00C00B0EBA6
:102BC000810FEFD1306800F00700B8420BD93068B0
:102BD00020F0070038433060306800F00700B8424A
:102BE00001D00120E5E72878400705D56068E9684D
:102BF00020F4E060084360602878000706D560682C
:102C0000296920F4605040EAC100606000F058F883
:102C10006168084AC1F30311515CC8400649086065
:102C200006480068FFF73EFE0020C2E70020024091
:102C300000100240D68F0008140000200C00002075
:102C40000F2202600C4A536803F003034360536889
:102C500003F0F0038360536803F4E063C3605268D9
:102C60004FF4E06303EAD20202610448006800F016
:102C7000070008607047000000100240002002407A
:102C80000448054900684968044AC1F30221515CBF
:102C9000C84070471400002000100240E68F000872
:102CA0000448054900684968044AC1F3C221515CDF
:102CB000C84070471400002000100240E68F000852
:102CC0000E4A51680E4801F00C03042B11D0082B5A
:102CD0000FD10C48C1F38343C903C05C0AD55168C6
:102CE000084AC1F34041921E515C054A5043B0FB73
:102CF000F1F070470449484370470000001002405B
:102D000000127A00C68F000800093D002DE9F84F37
:102D1000040070D02078C04DC00749D06868C0F367
:102D20008100012807D06868C0F38100022809D11A
:102D30006868C00306D52868800339D56068002814
:102D4000E7D035E06068B0F5803F0BD010B1B0F54A
:102D5000A02F11D0286820F480302860286820F443
:102D6000802002E0286840F480302860606890B1DC
:102D7000FFF73EFA06460AE0286840F48020286003
:102D8000F0E700BFFFF734FA801B642873D8286887
:102D90008003F7D50CE0FFF72BFA064605E000BFED
:102DA000FFF726FA801B6428F0D828688003F7D440
:102DB00020789A4E80074FF001094FF0000839D56E
:102DC000686810F00C0F07D06868C0F38100022813
:102DD00009D16868C00306D42868800714D5206923
:102DE000012808D110E02069B0B1C6F80090FFF7C3
:102DF000FFF9074605E00AE1FFF7FAF9C01B0228D0
:102E0000C4D828688007F7D52868616920F0F800E1
:102E100040EAC10028600DE0C6F80080FFF7E8F93D
:102E2000074604E0FFF7E4F9C01B022823D828680E
:102E30008007F7D4207800072CD57948A169D9B14B
:102E4000C0F80090FFF7D4F9074604E0FFF7D0F987
:102E5000C01B02280FD8686A8007F7D571484FF465
:102E6000FA510068B0FBF1F0009000BF0098411EDD
:102E70000091FAD20EE080E0C0F80080FFF7B8F9C8
:102E8000074604E0FFF7B4F9C01B022875D8686A4A
:102E90008007F7D42078400760D5E8690027C00094
:102EA00008D4E86940F08050E861E869012700F043
:102EB000805000905C480168C90513D401688346BE
:102EC00041F480710160FFF793F9824606E000BF8C
:102ED000FFF78EF9A0EB0A0064284ED8DBF800005B
:102EE000C005F5D5E06801280AD008B1052813D03F
:102EF000286A20F001002862286A20F0040002E01D
:102F0000286A40F001002862E06841F2883B98B1ED
:102F1000FFF76EF982460BE0286A40F00400286251
:102F2000EEE700BFFFF764F9A0EB0A0159455AD854
:102F3000286A8007F6D50CE0FFF75AF9824605E0CB
:102F4000FFF756F9A0EB0A0159454CD8286A8007CB
:102F5000F6D41FB1E86920F08050E861E06988B3D9
:102F60006968C1F38101022944D00228C6F8608053
:102F700004D0FFF73DF9044638E034E0FFF738F9B4
:102F8000074604E0FFF734F9C01B02282BD8286855
:102F90008001F7D4206AB0F5803F05D16868A16848
:102FA00020F4003008436860D4E9080108436968E8
:102FB00021F4741108436860C6F86090FFF718F9AF
:102FC000044606E025E000BFFFF712F9001B0228C7
:102FD00009D828688001F7D51BE000BFFFF708F982
:102FE000001B022802D90320BDE8F88F2868800161
:102FF000F4D40EE00128F7D06868226A00F480312A
:10300000914204D1616A00F47010884201D001201D
:10301000EAE70020E8E7000000100240000042421A
:1030200080044242140000200070004070B504008B
:1030300009D0606A002540B125616561A56294F8F8
:10304000510040B10CE0012070BD6068B0F5827F96
:10305000F4D0E561F2E784F85050204600F040F8E3
:10306000022084F851002068016821F040010160CD
:10307000A088218900F4827001F404410843A189E9
:1030800001F400610843217C01F002010843217D25
:1030900001F001010843218B01F400710843217FF5
:1030A00001F03801084394F8201001F08001084332
:1030B000218D01F40051084321680860A0690421B2
:1030C00001EA1040216848602068C16921F400616C
:1030D000C1616565012084F85100002070BD0000C9
:1030E00030B585B0002400940194029403940068E4
:1030F0001449884223D11448816941F48051816187
:10310000816901F480510491816941F00401816178
:1031100080690E4D00F004000490A0200090022071
:1031200001900320039069462846FEF767FF402080
:10313000CDE90004694628460294FEF75FFF05B01A
:1031400030BD000000300140001002400008014086
:103150007047704770B590F83C20012A26D00124B2
:1031600080F83C40022280F83D2003685A689D6840
:1031700022F070060A6832435A600D4B02689A4288
:1031800008D0B2F1804F05D00A4B9A4202D00A4BC8
:103190009A4204D1496825F080031943916080F870
:1031A0003D40002180F83C10084670BD022070BDF3
:1031B000002C0140000400400008004010B504004D
:1031C00003D094F83D0010B107E0012010BD0020AD
:1031D00084F83C00204600F01FF8022084F83D00EF
:1031E000211D206802F0D0FB012084F8460084F8FD
:1031F0003E0084F83F0084F8400084F8410084F8E1
:10320000420084F8430084F8440084F8450084F8C0
:103210003D00002010BD000008B500680B49884241
:1032200012D10B48816941F40061816180690022FB
:1032300000F40060009005211920FFF7B1FBBDE804
:1032400008401920FFF79EBB08BD0000002C01407C
:103250000010024090F83D10012901D00120704774
:10326000022180F83D100168CA6842F00102CA607C
:1032700000680B49884208D0B0F1804F05D0094959
:10328000884202D00849884204D1816801F00701D0
:10329000062903D0016841F0010101600020704758
:1032A000002C0140000400400008004070B50446B6
:1032B00090F83C000025012817D0012684F83C60D6
:1032C000022084F83D002068826822F0770222F410
:1032D0007F4282600868502838D00DDC20284FD00B
:1032E00005DC90B3102811D14AE0022070BD3028CF
:1032F00046D040280AD13BE060282FD070280DD05E
:10330000B0F5805F03D0B0F5005F12D0012584F8DE
:103310003D60002084F83C00284670BDCB68D1E9B0
:103320000121206802F06CFB2068816841F0770180
:1033300009E0CB68D1E90121206802F061FB206837
:10334000816841F480418160E1E719E0CA68496819
:10335000206802F067FB5021206806E0CA684968CF
:10336000206802F070FB6021206802F053FBCEE77A
:10337000CA684968206802F055FB40212068F4E7DC
:10338000226801461046F0E770472DE9F0410446F7
:103390000068C66805694FF00007A90713D5B10793
:1033A00011D5F91E0161012020772068806980070E
:1033B000204602D0FFF7E8FF04E000F07EF8204648
:1033C00000F07CF82777680716D5700714D52168B8
:1033D0006FF004000861022020772068806910F4F3
:1033E000407F204602D0FFF7CFFF04E000F065F8F1
:1033F000204600F063F82777280715D5300713D546
:1034000021686FF008000861042020772068C069F7
:103410008007204602D0FFF7B7FF04E000F04DF828
:10342000204600F04BF82777E80616D5F00614D5AD
:1034300021686FF010000861082020772068C069BB
:1034400010F4407F204602D0FFF79EFF04E000F01A
:1034500034F8204600F032F82777E80708D0F00764
:1034600006D021686FF001000861204600F028F8BE
:10347000280608D5300606D521686FF0800008615F
:103480002046FFF765FE680608D5700606D5216858
:103490006FF040000861204600F02AF8A8060AD51F
:1034A000B00608D521686FF0200008612046BDE80D
:1034B000F041FFF74EBEBDE8F08170477047000055
:1034C00010B5044600680749884201D1FFF7D0F9DA
:1034D00005492068884203D104480168491C0160FD
:1034E00010BD000000080040002C0140000000203A
:1034F0007047704770470000F8B5016804460868D7
:10350000CA684B6910F00F0F4FF0000559D003F057
:10351000010602F49077374365D0C10705D0D10585
:1035200003D5616C41F001016164410705D5D907FC
:1035300003D0616C41F002016164810705D5D907B0
:1035400003D0616C41F004016164010707D502F00A
:103550002001314303D0616C41F008016164616C6A
:1035600000293AD0800604D5900602D5204602F004
:10357000FFFB20684069616CC0F38010090700D42C
:1035800060B3204602F079FA20684069400621D5F0
:103590002068143050E8001F21F0400140E800127C
:1035A000002AF5D1E06BA8B16D494163E06BFEF7ED
:1035B000EBFB002811D0E06B416B01B0BDE8F0409F
:1035C000084783060FD593060DD52046BDE8F84081
:1035D00002F0CEBB2046FFF78DFFF8BD2046FFF777
:1035E00089FF6564F8BD266B2023012E7CD1C606B9
:1035F0007AD5D60678D508684868009048694FF0B3
:103600000206400640D5E16B086840680004000CE3
:10361000E8D0A28D8242E5D9E085886920282DD0A6
:1036200020680C3050E8001F21F4807140E800123F
:10363000002AF5D12068143050E8001F21F0010164
:1036400040E80012002AF5D12068143050E8001F2D
:1036500021F0400140E80012002AF5D184F8423000
:10366000256320680C3050E8001F21F0100140E86D
:103670000012002AF5D1E06BFEF763FB6663A08DB4
:10368000E18D401A81B22AE0A08DE18D401A81B20D
:10369000E08D0028A6D00029A4D022680C3252E880
:1036A000000F20F4907042E80007002FF5D1206849
:1036B000143050E8002F22F0010240E80027002FCC
:1036C000F5D184F84230256320680C3050E8002F93
:1036D00022F0100240E80023002BF5D1666320465B
:1036E000FFF707FFF8BDFFE705062BD5150629D51F
:1036F00094F841002128F5D1A068B0F5805F01D190
:103700002069B0B1206A411C2162216800784860BC
:10371000E08C401E0004000CE084E3D12068C16806
:1037200021F08001C1602068C16841F04001C160A2
:10373000D8E7206A0088C0F308004860206A801C2F
:103740002062E5E74006CDD55006CBD5CA682046B5
:1037500022F04002CA6084F8413000F0E3F9C1E78A
:103760006B5A000870B5040004D094F8410000259D
:1037700010B106E0012070BD84F84050204600F0F2
:1037800023F8242084F841002068C16821F4005106
:10379000C160204602F04EFB2068016921F490418F
:1037A00001612068416921F02A0141612068C168F6
:1037B00041F40051C1606564202084F8410084F820
:1037C00042006563002070BD2DE9F04385B0002400
:1037D00000940194029403940646DFF888C10368BC
:1037E000614802210322614D10274FF480684FF099
:1037F000800963454ED1836943F4804383618369C3
:1038000003F480430493836943F004038361806974
:10381000039200F0040004900802CDE9000169461B
:103820002846FEF7EBFBCDE9008469462846029462
:10383000FEF7E4FB4F4D4E484FF48058C5E90007B2
:10384000C5E902492C616C61C5E906484F46284626
:10385000FEF794FB08B1FDF777FDB5636E62454D49
:10386000434844351430C5E90004C5E902472C61DA
:103870006C61C5E906482846FEF780FB08B1FDF7F4
:1038800063FDF5630022052125206E62FFF788F8AD
:1038900025203DE0DFF8E0C063453ED1C36943F435
:1038A0000033C361C36903F400330493836943F0B5
:1038B000040383618069039200F0040004900420F3
:1038C000CDE9000169462846FEF798FB0820CDE9BE
:1038D0000004694628460294FEF790FB254D2448D3
:1038E00088353C302860C5E90174C5E903946C61F2
:1038F000AC612846EC61FEF741FB08B1FDF724FD01
:10390000B5630022052126206E62FFF749F82620C4
:10391000FFF738F805B0BDE8F083184DAB42F9D198
:10392000C36943F48023C361C36903F48023049310
:10393000836943F0080383618069CDE9008100F069
:103940000800CDE903200E4D69462846FEF756FBD8
:10395000E814CDE90004694628460294FEF74EFBC0
:10396000D8E7000000380140001002400008014084
:10397000440002406C030020004400400048004026
:10398000000C01402DE9F84F044690F842009A4699
:1039900016460D46202802D00220BDE8F88FB5B1AA
:1039A000AEB100206064222184F842102063FEF74B
:1039B0001FFCA6858146E685A0684FF48058202725
:1039C000404501D1206920B12E46002529E0012083
:1039D000E3E7002625E04B46002220212046CDF8D3
:1039E00000A002F09EFA18B184F842700320D4E7D8
:1039F00026B1A06840451AD038B108E02068406878
:103A0000C0F3080025F8020B08E0206978B12068AF
:103A1000406800F07F0000BF06F8010BE08D401EFB
:103A2000E085E08D0028D6D184F84270B5E72068A3
:103A30004068F1E790F84230202B01D00220704717
:103A400021B11AB10023036302F050BA012070477C
:103A500010B50068084988420DD10122074908487D
:103A6000FFF7E8FF002305491A46481F8068BDE8B4
:103A7000104003F0E9B810BD00380140C10000203B
:103A8000940200202DE9F843044690F8410098463E
:103A900016460D46202802D00220BDE8F88385B1E5
:103AA0007EB100206064212084F84100FEF7A0FB75
:103AB000A6848146E684A0682027B0F5805F02D006
:103AC00003E00120E9E7206910B12E4600250EE051
:103AD00000260CE08021204602F023FAA8B9C6B1E6
:103AE00016F8010B21684860E08C401EE084E08CF1
:103AF0004B464FF00002CDF800800028EAD14FF08D
:103B00004001204602F00DFA40B184F841700320D4
:103B1000C3E735F8020BC0F30800E3E784F841700F
:103B20000020BAE770470020FDF7C0FBFEE7000069
:103B30000148FEF765BB00005C0100200148FEF76C
:103B4000C1BB00005C01002038B5406A002190F83C
:103B50003D202B4B46F2A8141B68B3FBF4F3C3EBD8
:103B6000C30303EB830300933BB15B1E0093036825
:103B70001B689B0505D5009BF6E7036C43F020030B
:103B80000364436B03B19962836B03B19962036869
:103B90001C6824F480641C604185436B03B1596345
:103BA000836B03B1596303681C6824F001041C6033
:103BB00090F83D402023602C0BD0282434EA0202E8
:103BC0000FD080F83D3080F83E1000BFFEF792FC29
:103BD00038BD80F83D3080F83E100164FEF70EFBE2
:103BE00038BD0268136843F001031360026813686C
:103BF00043F480631360016380F83D40E6E7000012
:103C00001400002000684169C943090601D400215D
:103C10000161704770B5044690F83D0094F83E107D
:103C2000102901D0402906D1222804D121680A6830
:103C300022F400620A60282131EA00024FF00005F8
:103C40004FF0200626D021684968090505D4602870
:103C500003D084F83D6084F83E50256320684168B5
:103C6000090537D5416821F400614160606B90F827
:103C700021203C49012A11D04163606BFEF784F892
:103C800038B32068016821F00101016084F83D60CB
:103C9000606B1CE0256384F83D10DFE7A06B416397
:103CA000A06BFEF771F8A0B120684169C9434906CD
:103CB00005D40069616A0870606A401C606220680F
:103CC000016821F00101016084F83D60A06B416B47
:103CD000884710E094F83D10602910D04169C9432D
:103CE000490605D40069616A0870606A401C606218
:103CF0002046FEF7FFFB206CC1071CD115E084F8BD
:103D00003D6025644169C943490605D40069616A7B
:103D10000870606A401C60622068016821F001013F
:103D200001602046FEF76AFAE5E7810703D4410700
:103D300001D4000704D52068416821F4E0614160A6
:103D400094F83D00216C49070BD5282809D1064875
:103D5000E062256384F83D6084F83E502046FEF71B
:103D60008FFC70BD493B00080000FFFF01684A69F5
:103D7000D24352050FD46FF480624A61002140F8AB
:103D8000301F202242738173026942F004020261F3
:103D90000173012070470020704710B5C26A438D3F
:103DA0000168042B06D0438D032B08D0438D022BD2
:103DB0001DD012E04A6822F480624A600CE04B6831
:103DC00023F480634B60042A06D0022A04D00168E1
:103DD0000A6822F480620A6001680969426A117007
:103DE000416A491C4162418D491E418510BD012A2D
:103DF00034D0102A32D0042A34D0022A32D00B68B0
:103E000043F400730B6001680969436A1970416AE1
:103E1000491C4162438D5B1E438503681B690B701F
:103E2000416A491C4162418D491E418501684B68C8
:103E300023F440734B60202180F83D1090F83E3011
:103E40000021402B80F83E1010D0082A02D0202AF2
:103E500000D012210163FEF714FC10BD0B6823F49F
:103E60008063CFE70B6843F48063CBE70163FEF721
:103E70000AFC10BD38B590F83D10222910D1C36A54
:103E8000418D03290DD901680969426A1170416A9F
:103E9000491C4162418D491E4185418D032906D04F
:103EA00038BDC26A022A02D0012906D029B10068B1
:103EB000416821F48061416038BD2A4A46F2A81465
:103EC00000211268B2FBF4F202EB82020092026857
:103ED0002024009D6D1E009526D01568AD05F8D4F0
:103EE000156825F4806515600268556825F4E0655D
:103EF000556002681269456A2A70426A521C426221
:103F0000428D521E428580F83D4090F83E2080F858
:103F10003E10402A21D0082B02D0202B00D01221A5
:103F20000163FEF7AEFB38BD036C43F0200303646E
:103F3000536823F4E063536002681269436A1A709D
:103F4000426A521C4262428D521E428580F83D40B8
:103F500080F83E10FEF7CEFA38BD0163FEF793FB02
:103F600038BD00001400002010B5C26A90F83D1062
:103F700021290BD1418D51B1416A02680978116143
:103F8000416A491C4162418D491E418510BD202373
:103F90000021082A13D0202A11D012F5803F0ED01C
:103FA0000268546824F4E06454601122026380F8CB
:103FB0003E1080F83D3000BFFEF764FB10BD026884
:103FC000546824F4E06454600268146844F4007493
:103FD0001460016380F83D3090F83E2080F83E1078
:103FE000402AE9D1FEF750FB10BD000010B590F853
:103FF0003D1090F83E30C26A048DB4B1212903D03F
:10400000402B11D122290FD1418DE1B390F83E1000
:10401000402942D0416A026809781161416A491C0D
:104020004162418D491E418510BD2129E8D12023DF
:104030000021082A13D0202A11D012F5803F0ED07B
:104040000268546824F4E06454601122026380F82A
:104050003E1080F83D3000BFFEF714FB10BD026833
:10406000546824F4E06454600268146844F40074F2
:104070001460016380F83D3090F83E2080F83E10D7
:10408000402AE9D100E002E0FEF7FEFA10BD006828
:10409000416821F48061416010BDBDE8104000F02E
:1040A000F3B8000078B590F83E50C26A046B90F8FF
:1040B0003D6000230168222E73D1066D0EB9402D9C
:1040C0006FD0056D1DB90569B5F5404F1BD0458D05
:1040D00095B3468D484D012E20D0448D022C4DD0F5
:1040E0000C6844F480640C6001684C68240579D540
:1040F000AA4273D0012A71D0082A6FD0102A6DD03D
:10410000202A6BD06EE04A698A6900920A6842F4FC
:1041100080720A60016D491C016578BDAA4214D104
:104120000A6822F480620A6001684A68120504D5B0
:104130000A6822F4806217E0FFE74A698A69009200
:104140000A6842F400720A6050E0082A10D0202A5F
:104150000ED0122C0AD0042A03D0022A01D0102A31
:10416000E6D10A6842F480620A603BE0012ADFD0AF
:104170000A6822F480620A600168DEE7042A11D02E
:10418000022A0FD0102A0DD00C6844F400640C6091
:1041900001684C698C6900940C6824F480640C609C
:1041A00008E025E00C6844F480640C6001684C6908
:1041B0008969009101684C68240517D5AA4207D087
:1041C000012A05D0082A03D0102A01D0202A0DD1B7
:1041D0004A6842F480524A6008E0FFE74A6842F4C5
:1041E00080524A6001684A6989690091036578BD17
:1041F00048698869009078BD0000FFFF90F83E1084
:10420000402910D00169B1F5804F19D0016DA9B3D3
:10421000016D012910D1416C5FF0F10201F4407190
:1042200042EAD11106E0016D0029416C05D0C9B206
:1042300041F0010100680161704701F0FE01F9E7FA
:1042400090F83D102129416C09D0C9B241F001011B
:1042500002681161416B29B1896A49B902E001F034
:10426000FE01F5E7816B0029E6D0896A0029E3D0D9
:104270000068416841F4006141607047FFE7416CAC
:10428000F02201F44071CBE710B590F83D10026DBB
:104290004AB1026D012A14D0026D022A16D0BDE87F
:1042A0001040FFF7AFBCC16C0129816C02D0C1F393
:1042B000072108E00268C9B21161016D891C01651E
:1042C00010BD816CC9B20268116123E022291CD0A3
:1042D000428D0AB1212920D0428D002AF0D1212916
:1042E000EED101684A6822F4E0624A6001680A6817
:1042F00042F400720A6000210163202280F83D2010
:1043000080F83E10FEF7C0F910BD01680A6842F45B
:1043100080720A60016D491CD1E7416A0268097820
:104320001161416A491C4162418D491E418510BDA0
:104330002DE9F843044600680D46DDE90897016859
:104340009846164641F4807101604B4600224FF0BA
:1043500001112046009700F085F948B120680068F7
:10436000C00502D54FF4007020640320BDE8F88337
:10437000216805F0FE0008613B464A461549204683
:1043800000F0B8F988B920684169806900903A4620
:104390004946204600F00CFA48B1206C042804D1AC
:1043A0002068016841F4007101600120DEE7F5B288
:1043B000B8F1010F09D02168300A08613A46494630
:1043C000204600F0F5F90028E7D1206805610020BB
:1043D000CCE700000200010038B50C4690F83D2003
:1043E00000212825954302680B4605D05169916943
:1043F000009180F83C3038BD556825F480655560E3
:10440000E243540700D50121120601D5828900E05C
:10441000028B80F83C3092B2FDF7F1FE38BD00000F
:104420002DE9F04190F83D300446C26A0021202673
:104430001E4F00686FF48065082A01D0202A01D140
:10444000282B04D0212B17D04561BDE8F081E7620D
:10445000426822F4E0624260206845612068026898
:1044600022F480620260216384F83D6084F83E108B
:104470002046FEF705F9E8E7E7622122226384F887
:104480003D6084F83E10416821F4E061416020689D
:1044900045612068016821F4806101602046FFF7D2
:1044A000B1FB2046FEF7E3F9CFE700000000FFFF75
:1044B000F8B590F83D6004460068416821F4E06179
:1044C00041602068002541690091016841F00101C7
:1044D00001602068016821F4806101602068416802
:1044E000090520D5474F222E48D02A2E46D0616B91
:1044F000096849686185618D19B1216C41F0040139
:104500002164416821F400614160606BFDF788FC23
:10451000012808D0606B4763606BFDF735FC10B174
:10452000606B416B8847608D08B320684169C9435F
:10453000490708D40069616A0870606A401C6062BB
:10454000608D401E608520684169C943490608D4D2
:104550000069616A0870606A401C6062608D401E7C
:104560006085608D18B1206C40F004002064206CE0
:1045700000B32046BDE8F840FFF74CBBA16B0968CB
:1045800049686185618D19B1216C41F00401216494
:10459000416821F400614160A06BFDF741FC0128F6
:1045A000C1D0A06B4763A06BFDF7EEFB0028BAD02B
:1045B000A06BB6E72A2E06D12563282084F83D009B
:1045C0002046FEF753F994F83D10202028290DD0FD
:1045D000216B222901D0222E07D1256384F83D00CA
:1045E00084F83E502046FEF741F9F8BD0649E162E5
:1045F000256384F83D0084F83E502046FEF740F8DD
:10460000F8BD0000493B00080000FFFF70B51646EA
:104610000D4604461EE02046FFF7A8FB08B1012026
:1046200070BD681C16D0FDF7E3FD801BA84200D8C2
:1046300085B920684069C04340070BD5002044F885
:10464000300F20216173A073216941F020012161A5
:104650002073E4E720684069C0434007DBD40020B2
:1046600070BD00002DE9F047984617460D460446F8
:10467000C1F30746DDF820902AE000BFB8F1FF3F04
:1046800026D0FDF7B5FDA0EB0901414502D8B8F1F0
:10469000000F1DD12068012E16D0806925EA000088
:1046A0000004000C12D00020B84211D1002044F8C0
:1046B000300F20216173A073216941F02001216135
:1046C00020730120BDE8F0874069E7E70120EBE7B0
:1046D0002068012E0AD0806925EA00000004000C41
:1046E00006D00020B842C9D00020EBE74069F3E7CC
:1046F0000120F7E72DE9F047984616460D46044697
:104700004FF000094FF0200AC1F3074723E020686B
:104710004069C043400515D42068016841F4007128
:10472000016021686FF480604861C4F8309084F8BB
:104730003DA084F83E90216C41F00401216484F88E
:104740003C9021E0701C06D0FDF752FDA0EB080064
:10475000B04203D816B1012F1FD021E02068012FED
:1047600015D0806925EA00000004000C18D000BFB5
:1047700044F8309F84F80DA084F80E90216941F030
:104780002001216184F80C900120BDE8F087406988
:1047900025EA00000004000CEAD12068406901E02D
:1047A0002068806925EA00000004000CAFD1ECE726
:1047B00070B516460D4604461EE02046FFF7D6FAB1
:1047C00008B1012070BD681C16D0FDF711FD801BDB
:1047D000A84200D885B920684069C04300060BD5BF
:1047E000002044F8300F20216173A073216941F04B
:1047F000200121612073E4E720684069C04300067E
:10480000DBD4002070BD00003EB5002410480094A9
:10481000019402940D4984600160047304750125BC
:1048200005614FF460214460C161FCF759FE08B195
:10483000FCF78AFD0095CDE9015469460448FCF770
:10484000D1FD002801D0FCF77FFD3EBD00240140D2
:10485000040100200F4810B50D4901600921416095
:1048600000214FF480228160C0E90312920042616E
:10487000017641768176C17601774177FDF749F976
:10488000002803D0BDE81040FCF75EBD10BD00005D
:104890000064004034010020154808B5416941F02A
:1048A000010141614069002200F0010000900521F2
:1048B0000E20FEF775F80E20FEF764F800220521A1
:1048C0000F20FEF76DF80F20FEF75CF8002205219F
:1048D0001020FEF765F81020FEF754F8002205219D
:1048E0001120FEF75DF8BDE808401120FEF74AB838
:1048F0000010024010B500F045F9084A00210848B0
:1049000002F07CFA07490860FCF752FC00F024F939
:1049100001F00CF9BDE8104002F05AB8A08F000871
:10492000915800080400002070B586B0002420488B
:104930000094019402940394816941F01001816113
:10494000816901F010010491816941F020018161C8
:10495000816901F020010491816941F004018161C4
:10496000816901F004010491816941F008018161CC
:104970008069104E00F008004FF4005504900022AA
:1049800029463046FDF72FFC0220CDE90240009574
:104990000125694601953046FDF730FBCDE900540D
:1049A000694605480295FDF729FB06B070BD000079
:1049B0000010024000100140000801400D4810B5F1
:1049C0000B4901600C49416000214FF48042816035
:1049D000C0E9031241618161C1610162FDF78CFD93
:1049E000002803D0BDE81040FCF7AEBC10BD0000AD
:1049F000005400405C010020801A0600104810B5E9
:104A00000E4901604FF48271416000218160C160F4
:104A10004FF400720161C0E905120822C0E90721C4
:104A2000416281620A21C162FEF700FB002803D0C7
:104A3000BDE81040FCF788BC10BD0000003001400C
:104A4000F401002010B586B00024174800940194AA
:104A50000294039404941349059401604721C0E92A
:104A600001140921C0E9031444618461FEF7A6FB27
:104A700008B1FCF769FC4FF48050009069460A4881
:104A8000FEF714FC08B1FCF75FFC049404A9064887
:104A90000594FEF75FFB002801D0FCF755FC06B03B
:104AA00010BD0000002C01404C0200200C4810B545
:104AB0000A4901604FF4E1314160002181600C221C
:104AC000C160C0E904128161C161FEF74BFE00289C
:104AD00003D0BDE81040FCF737BC10BD00380140E2
:104AE000940200200C4810B50A4901604FF4E131EE
:104AF0004160002181600C22C160C0E90412816123
:104B0000C161FEF72FFE002803D0BDE81040FCF77E
:104B10001BBC10BD00440040DC0200200C4810B556
:104B20000A4901604FF4E1314160002181600C22AB
:104B3000C160C0E904128161C161FEF713FE002863
:104B400003D0BDE81040FCF7FFBB10BD004800409B
:104B500024030020FEE7FEE700B589B024220649C1
:104B60006846FBF73BFB6A460021044802F046F921
:104B70000349486009B000BD389000087D7A0008FC
:104B8000B400002038B50120FCF76EF84FF4C8746B
:104B90002046FDF721FA0020FCF766F82046FDF7D5
:104BA0001BFA0120FCF760F800F03AF939480021BF
:104BB000009040238022084600F0DAF900F0A4FAC1
:104BC000FCF75EF83448FDF789F80A20FCF762F933
:104BD0004FF4FA700146FCF727F9FCF754F9FCF79B
:104BE0008FF900210846FCF765F96420FDF7F4F918
:104BF0003220FCF741F9294800F0DCFC00F0E0FD30
:104C000000240523812221B2002000F055F900F094
:104C10007BFA641D3F2CF4DB2148002100904023E7
:104C20008022084600F0A4F906231EA203210020DA
:104C300000F0FCF906231CA20321262000F0F6F95F
:104C400006231BA20321482000F0F0F906231AA234
:104C50002121052000F0EAF9062317A233210520BF
:104C600000F0E4F9062314A221214B2000F0DEF924
:104C7000062311A233214B2000F0D8F90120009027
:104C80000623122203216A2000F074F8BDE83840A0
:104C900000F03ABA1899000834010020DC02002024
:104CA0001891000850726500302E30560000000048
:104CB000302E3041000000003000000010B500210F
:104CC000074C0A46002004EBC1131A54401CC0B222
:104CD0008028FAD3491CC9B20829F3D310BD0000BB
:104CE00021320020F0B50B4424E0044685181DE075
:104CF0007F2C19D8002917DB3F2915DCCE1701EBD3
:104D000056764FEAE60C0D4F26F0070607EBCC1758
:104D10002744A1EB060E97F800C0012606FA0EF60E
:104D20002CEA060C87F800C0641C24B2A542DFDC24
:104D3000491C09B28B42D8DCF0BD000021320020B2
:104D400010B57F2813D8002911DB3F290FDCCA17C3
:104D500001EB5272D410064B22F0070203EBC4138E
:104D600018448A1A0378012191400B43037010BD47
:104D7000213200202DE9F0430446CD1807988846DB
:104D8000A618274668BB681E0FFA80F909E041465D
:104D90003846FFF7D5FF49463846FFF7D1FF7F1C5D
:104DA0003FB2BE42F3DC761E474636B209E03946D2
:104DB0002046FFF7C5FF30463946FFF7C1FF7F1C8D
:104DC0003FB2BD42F3DCBDE8F083444605E0214636
:104DD0003846FFF7B5FF641C24B2A542F7DC7F1C00
:104DE0003FB2BE42F1DCEEE710B57F2814D80029AF
:104DF00012DB3F2910DCCA1701EB5272D310074CAB
:104E000022F0070204EBC3138A1A185C01219140B7
:104E1000084201D0012010BD002010BD2132002029
:104E200010B5AE2000F06CFBD52000F069FB8020AF
:104E300000F066FBA82000F063FB3F2000F060FB61
:104E4000D32000F05DFB002000F05AFB402000F072
:104E500057FBA12000F054FBC82000F051FBDA20E2
:104E600000F04EFB122000F04BFB812000F048FBCD
:104E7000CF2000F045FBD92000F042FBF12000F0EC
:104E80003FFBDB2000F03CFB302000F039FBA4208E
:104E900000F036FBA62000F033FB8D2000F030FB45
:104EA000142000F02DFBAF2000F02AFBFFF706FFD7
:104EB000BDE8104000F028B9F0B50B4423E00446EB
:104EC00085181CE07F2C18D8002916DB3F2914DC3C
:104ED000CE1701EB567C4FEAEC070C4E2CF0070C7A
:104EE00006EBC7162644A1EB0C0E37784FF0010CE9
:104EF0000CFA0EFC87EA0C073770641C24B2A5423A
:104F0000E0DC491C09B28B42D9DCF0BD2132002023
:104F100010B5891CCCB240F0B00000F0F1FA1020BE
:104F200040EA141000F0ECFA04F00F00BDE8104065
:104F300000F0E6BA08B5082B0DD0062B0AD10A4BB3
:104F400002EB420203EB4202C03A0092082306221F
:104F500000F00EF808BD054B03EB0212A2F500723B
:104F6000102300920822F3E716A40008269E0008EA
:104F70002DE9F04F1F4616460D4682460024FFF7E6
:104F8000B1FE7F1EF81707EB50700121DFF898B0D3
:104F900001EBE00743E000203DE000BF0AEB000327
:104FA0007F2B36D8E91705EB5171CA1021F00701A4
:104FB000691A002D03DA521E083112B209B202EB4F
:104FC0000409B9F1070F0ED8099A04FB06F8024448
:104FD0000BEBC91E18F802201EF803C08A404CEAE9
:104FE000020C0EF803C009F10102072A11D80BEBDD
:104FF000C91202EB0308099A04FB06FC024498F864
:1050000080301CF80220C1F10801CA40134388F81F
:105010008030401CC0B2B042C0D3641CE4B2A7428E
:10502000B9DCBDE8F08F0000213200202DE9FF4FF0
:10503000002583B09B4690462C46AA46DFF8C090D8
:1050400056E010068DF8042005F101050DD40398F3
:10505000ADB220448DF805A000B25B460499FFF77D
:1050600069FF04EB0B0084B242E0A8B218F800100C
:10507000002941D0401C8DF8051085B28DF806A09E
:10508000002606E0384601A9FBF7F1F868B1761C66
:10509000B6B2C6EBC60000EB800101EB0900074683
:1050A00018A1FBF7E4F80028ECD1BBF1080F03D0FE
:1050B000BBF1060F1CD111E0C6EBC60000EB80016E
:1050C00001EB0900C01C009003981023204400B29B
:1050D0001A460499FFF74CFF103408E003980623A2
:1050E000204400B23F220499FFF724FFA41DA4B27C
:1050F00018F80520002AA4D107B0BDE8F08F000001
:1051000050A600080000000070B5084D00240021E2
:105110002046FFF7FDFE05EBC410802100F002FAE7
:10512000641CE4B2082CF2D370BD000021320020D0
:105130002DE9FC41DE4EDF4D040002D0012C7BD076
:10514000B1E1DD4800210090402380220846FFF7AE
:105150000FFF2878012802D1687801286DD0082334
:10516000262203210020FFF7BDFD0623D3A2032141
:105170000020FFF75BFF3470D5F83200FBF778FBB7
:10518000CDE90001CB48CFA24021453000F02CFFF3
:1051900008231E2203212620FFF7A4FD0623122246
:1051A00003216A20FFF79EFDD5F83200C7498842E7
:1051B0001DDDFBF7F4F8C649FBF729F94FF07E51E6
:1051C000884200DD0846C349FBF7EFF8FBF750FBC8
:1051D0000022C14BFBF759F9FBF72BFB0121401CC7
:1051E000C2B20091062303216A20FFF7C3FDB14A32
:1051F0000623453203212620FFF718FFD5F83E008D
:105200002235FBF735FBCDE90001AA48B3A24021C6
:10521000453000F0E9FE08231E2203214820FFF755
:1052200061FDA44A0623453203214820FFF7FEFE14
:105230002868FBF71DFB01E0FAE062E0CDE9000120
:105240009C48A8A24021453000F0CEFE0823182239
:1052500021210520FFF746FD964A062345322121EC
:105260000520FFF7E3FE6868FBF702FBCDE90001CC
:1052700090489CA24021453000F0B6FE0823182239
:1052800033210520FFF72EFD8A4A062345323321BC
:105290000520FFF7CBFEA868FBF7EAFACDE900018D
:1052A000844890A24021453000F09EFE0823182239
:1052B00021214B20FFF716FD7E4A0623453221218E
:1052C0004B20FFF7B3FEE868FBF7D2FACDE9000107
:1052D000784884A24021453000F086FE0823182239
:1052E00033214B20FFF7FEFC724A0623453233215F
:1052F0004B20FFF79BFE55F8220910F0FF4F09D015
:1053000011E00823262203210020FFF7EBFC0623EF
:1053100076A22CE7D5F8260010F0FF4F03D168786D
:10532000012806D028B30F212520FFF75DFD28B9FD
:105330000AE00F212520FFF757FD28B90C230D2285
:105340000F212520FFF7B8FD0F213420FFF74CFD7A
:1053500028B10C230D220F213420FFF7ADFD95F865
:105360002100192829D80F214320FFF73DFD90B1D6
:1053700017E00F212520FFF737FD28B10C230D2260
:105380000F212520FFF798FD0F213420FFF72CFD7A
:105390000028DED0E3E70C2311220F214320FFF782
:1053A0008BFD0F215820FFF71FFDD8B10C231122D0
:1053B0000F215820FFF780FD14E032284FF00F0135
:1053C0004FF0430014D8FFF70FFD28B10C23112232
:1053D0000F214320FFF770FD0F215820FFF704FD38
:1053E0000028E3D00F216E20FFF7FEFCC8B95AE079
:1053F000FFF7FAFC28B10C2311220F214320FFF7FD
:105400005BFD0F215820FFF7EFFC28B10C23112280
:105410000F215820FFF750FD0F216E20FFF7E4FC0D
:10542000F0BB0C2311220F216E20FFF745FD3AE05F
:10543000307801280DD02F48002100904023802291
:105440000846FFF795FD0021402381220846FFF71B
:1054500033FD3470284FDFF8A480002404EB84006F
:1054600000EBC406B01C00B2232307221021FFF773
:1054700039FC2819C07DFBF799F93946FAF7C7FFBF
:105480004146FAF792FFFBF7A7F9C3B2C0F1320029
:1054900001B2F61C30B20522FFF70EFD641C00E0DD
:1054A00001E00A2CDADBBDE8FC41FFF72DBE00006D
:1054B000B40000209C3000201891000853746F70D5
:1054C00000000000252E3166560000003333B34142
:1054D00068664640000088410000E03F252E3166A6
:1054E00041000000252E3166000000005265616415
:1054F00079000000189500080000344300000442C1
:1055000001B584B00121642204A88DE807000B4690
:10551000002278210248FDF7B9F805B000BD00006F
:105520005C0100200EB564228DE8070001234022B3
:1055300078210248FDF7AAF80EBD00005C010020AA
:1055400000F012BA2DE9F0411D4616460F4680467E
:1055500003F034FB164C022806D1606820B9042001
:1055600002F09FFE606020B103F028FB022808D003
:105570000CE0502080F31188BFF34F8FBFF36F8F83
:10558000FEE74FF0FF31606803F060FA2B463246C9
:1055900039464046FBF7E2FB03F010FB022804D13A
:1055A0006068BDE8F04103F08BB8BDE8F081000011
:1055B000D4000020024908600A210248FAF727BEF9
:1055C000DC0000204C360020F0B589B01E4617469E
:1055D0000C460546092840D8202101A8FAF717FEF5
:1055E000152C30D2DFE804F00B13161C20232629DB
:1055F0003B3E4144474B4E5154575A5D60003B4639
:105600002A462BA101A8009600F006FD1BE02A46C1
:105610002CA101E02A462EA101A800F0FDFC12E019
:105620003B462A462DA10BE02A4630A1F4E72A4644
:1056300031A1F1E72A4633A1EEE73B462A4634A1E1
:1056400001A800F0E9FC01A8FAF70AFE82B234488A
:105650000A2301A90068FEF715FA09B0F0BD2A4631
:1056600030A1D9E72A4632A1D6E72A4633A1D3E7AB
:105670002A4635A1D0E73B462A4636A1E0E72A462E
:1056800037A1C9E72A4639A1C6E72A463AA1C3E7A6
:105690002A463CA1C0E72A463DA1BDE72A463FA1D4
:1056A000BAE72A4640A1B7E72A4642A1B4E700007C
:1056B000232530336450253034645425303464213C
:1056C000000000002325303364505645522100006D
:1056D0002325303364504944210000002325303312
:1056E00064504944253033642100000023253033C1
:1056F0006450554C4B210000232530336450554CE9
:10570000522100002325303364504D4F44210000C6
:105710002325303364504D4F4425642100000000A0
:10572000DC00002023253033645052414421000026
:105730002325303364504450542100002325303356
:1057400064504443542100002325303364504453B3
:105750005421000023253033645042442564210045
:1057600023253033645053434B210000232530332D
:105770006450435344210000232530336450435385
:105780004D21000023253033645043535221000043
:10579000232530336450534D4921000023253033F5
:1057A0006450534D58210000232530336450434C3E
:1057B0004521000023253033645052545621000007
:1057C00000B589B0242206496846FAF707FD6A4603
:1057D0000021044801F012FB0349486009B000BDF4
:1057E00074A60008B57C0008DC0000203EB51B4D07
:1057F000040024D0FAF734FD0A2820D32078232887
:105800001DD1207950281AD1607A212817D1002083
:10581000019002900422611D01A8FAF715FD0A22E9
:10582000694601A8FAF731FD009901AA914206D014
:10583000B0F5FA7F03DB40F6C411884201DD28464B
:105840003EBDA0F5FA70FAF7A8FF0549FAF7DFFDAB
:1058500003B00449BDE83040FAF7A7BD000080BF9F
:105860000000FA4400003443092810D8B42900D9B4
:10587000B4214FF4FA635943B423B1FBF3F101F5BA
:10588000FA7189B213460A460021FFF79DBE7047A0
:105890004FF4FA740120FBF7E7F9204601F038F9DC
:1058A0000020FBF7E1F9204601F032F9F2E70000B1
:1058B00070B5074D0024285D28B100231A46042145
:1058C0002046FFF781FE641CE4B2092CF3D970BDB9
:1058D0004C36002010B54FF0E020006903F06EF95F
:1058E000012803D0BDE8104002F088BC10BD30B5DF
:1058F00093B028216846FAF78AFC14210AA8FAF71F
:1059000086FC002501200F95109511950104129534
:105910008DE8230004904FF4E010CDE90810022434
:1059200007946846FDF7F2F908B172B6FEE70AA9D6
:105930000F2081E831004FF48060CDE90D05022190
:105940000AA8FDF7E7F808B172B6FEE74FF4004089
:1059500011900F940FA8FDF767F8002801D072B6D8
:10596000FEE713B030BD704772B6FDF74BB80000CC
:105970000148FDF70ABD00004C0200200148FDF778
:1059800004BD000038040020F0B50268194B1A4C21
:105990001A4D4FF08047984205D0B84203D0A0423C
:1059A00001D0A84203D122F070064A6832439842DF
:1059B00005D0B84203D0A04201D0A84203D122F4BE
:1059C0004074CA6822434C6922F08002224302607C
:1059D0008A68C2620A688262984201D109690163D9
:1059E000012141610169C90703D0016921F0010169
:1059F0000161F0BD002C014000040040000800409F
:105A000010B5846842EA032224F47F440A43224307
:105A1000826010BD826822F070020A4342F00701E2
:105A20008160704710B5036A046A24F001040462BF
:105A3000846924F0F00444EA021423F00A020A43C1
:105A40008461026210BD10B5036A046A24F0100478
:105A50000462846923F0A00324F4704444EA02320F
:105A600043EA01118261016210BD10B5406A002154
:105A7000C185C184FDF73EFD10BD01680C3151E8C0
:105A8000002F22F4907241E80023002BF5D1016829
:105A9000143151E8002F22F0010241E80023002BCD
:105AA000F5D1016B012909D101680C3151E8002FB2
:105AB00022F0100241E80023002BF5D1202180F8CC
:105AC000421000210163704738B5054C00230122C4
:105AD00069462068FDF756FF0028F7D038BD000062
